{
  "contractName": "commitReveal",
  "abi": [
    {
      "constant": true,
      "inputs": [],
      "name": "votes1",
      "outputs": [
        {
          "name": "",
          "type": "uint256"
        }
      ],
      "payable": false,
      "stateMutability": "view",
      "type": "function"
    },
    {
      "constant": true,
      "inputs": [],
      "name": "votes2",
      "outputs": [
        {
          "name": "",
          "type": "uint256"
        }
      ],
      "payable": false,
      "stateMutability": "view",
      "type": "function"
    },
    {
      "constant": true,
      "inputs": [],
      "name": "isOpen",
      "outputs": [
        {
          "name": "",
          "type": "bool"
        }
      ],
      "payable": false,
      "stateMutability": "view",
      "type": "function"
    },
    {
      "constant": true,
      "inputs": [],
      "name": "endingTime",
      "outputs": [
        {
          "name": "",
          "type": "uint256"
        }
      ],
      "payable": false,
      "stateMutability": "view",
      "type": "function"
    },
    {
      "constant": true,
      "inputs": [],
      "name": "rewardTaken",
      "outputs": [
        {
          "name": "",
          "type": "bool"
        }
      ],
      "payable": false,
      "stateMutability": "view",
      "type": "function"
    },
    {
      "constant": true,
      "inputs": [],
      "name": "s",
      "outputs": [
        {
          "name": "",
          "type": "uint256"
        }
      ],
      "payable": false,
      "stateMutability": "view",
      "type": "function"
    },
    {
      "constant": true,
      "inputs": [],
      "name": "revealersReward",
      "outputs": [
        {
          "name": "",
          "type": "uint256"
        }
      ],
      "payable": false,
      "stateMutability": "view",
      "type": "function"
    },
    {
      "constant": true,
      "inputs": [],
      "name": "option1",
      "outputs": [
        {
          "name": "",
          "type": "string"
        }
      ],
      "payable": false,
      "stateMutability": "view",
      "type": "function"
    },
    {
      "constant": true,
      "inputs": [],
      "name": "numReveals",
      "outputs": [
        {
          "name": "",
          "type": "uint256"
        }
      ],
      "payable": false,
      "stateMutability": "view",
      "type": "function"
    },
    {
      "constant": true,
      "inputs": [],
      "name": "option2",
      "outputs": [
        {
          "name": "",
          "type": "string"
        }
      ],
      "payable": false,
      "stateMutability": "view",
      "type": "function"
    },
    {
      "constant": true,
      "inputs": [
        {
          "name": "",
          "type": "uint256"
        }
      ],
      "name": "commits",
      "outputs": [
        {
          "name": "",
          "type": "bytes32"
        }
      ],
      "payable": false,
      "stateMutability": "view",
      "type": "function"
    },
    {
      "constant": true,
      "inputs": [],
      "name": "numVotesCast",
      "outputs": [
        {
          "name": "",
          "type": "uint256"
        }
      ],
      "payable": false,
      "stateMutability": "view",
      "type": "function"
    },
    {
      "constant": true,
      "inputs": [],
      "name": "N",
      "outputs": [
        {
          "name": "",
          "type": "uint256"
        }
      ],
      "payable": false,
      "stateMutability": "view",
      "type": "function"
    },
    {
      "constant": true,
      "inputs": [],
      "name": "winner",
      "outputs": [
        {
          "name": "",
          "type": "uint256"
        }
      ],
      "payable": false,
      "stateMutability": "view",
      "type": "function"
    },
    {
      "inputs": [
        {
          "name": "n",
          "type": "uint256"
        },
        {
          "name": "stake",
          "type": "uint256"
        },
        {
          "name": "allowedPhaseSeconds",
          "type": "uint256"
        },
        {
          "name": "_option1",
          "type": "string"
        },
        {
          "name": "_option2",
          "type": "string"
        }
      ],
      "payable": false,
      "stateMutability": "nonpayable",
      "type": "constructor"
    },
    {
      "anonymous": false,
      "inputs": [
        {
          "indexed": false,
          "name": "s",
          "type": "string"
        },
        {
          "indexed": false,
          "name": "commit",
          "type": "bytes32"
        }
      ],
      "name": "newCommit",
      "type": "event"
    },
    {
      "anonymous": false,
      "inputs": [
        {
          "indexed": false,
          "name": "s1",
          "type": "string"
        },
        {
          "indexed": false,
          "name": "s2",
          "type": "string"
        }
      ],
      "name": "wins",
      "type": "event"
    },
    {
      "constant": false,
      "inputs": [
        {
          "name": "_commit",
          "type": "bytes32"
        }
      ],
      "name": "commitVote",
      "outputs": [],
      "payable": true,
      "stateMutability": "payable",
      "type": "function"
    },
    {
      "constant": false,
      "inputs": [
        {
          "name": "_vote",
          "type": "string"
        },
        {
          "name": "_commit",
          "type": "bytes32"
        }
      ],
      "name": "revealVote",
      "outputs": [],
      "payable": false,
      "stateMutability": "nonpayable",
      "type": "function"
    },
    {
      "constant": false,
      "inputs": [],
      "name": "claimReward",
      "outputs": [],
      "payable": false,
      "stateMutability": "nonpayable",
      "type": "function"
    }
  ],
  "bytecode": "0x60806040526000600455600060085560006009556000600a556000600f60006101000a81548160ff0219169083151502179055503480156200004057600080fd5b50604051620016103803806200161083398101806040528101908080519060200190929190805190602001909291908051906020019092919080518201929190602001805182019291905050506000841115156200009d57600080fd5b600185111515620000ad57600080fd5b82420160078190555084600281905550836003819055508160009080519060200190620000dc9291906200011c565b508060019080519060200190620000f59291906200011c565b506001600f60016101000a81548160ff0219169083151502179055505050505050620001cb565b828054600181600116156101000203166002900490600052602060002090601f016020900481019282601f106200015f57805160ff191683800117855562000190565b8280016001018555821562000190579182015b828111156200018f57825182559160200191906001019062000172565b5b5090506200019f9190620001a3565b5090565b620001c891905b80821115620001c4576000816000905550600101620001aa565b5090565b90565b61143580620001db6000396000f3006080604052600436106100f1576000357c0100000000000000000000000000000000000000000000000000000000900463ffffffff1680630bbfc206146100f65780631327e2581461016d5780632c7a2e5b146101985780633e858923146101c357806347535d7b146101e75780636c47a6c31461021657806372232cf41461024157806386b714e21461027057806386cd1bcc1461029b57806392d2e438146102c65780639b2c1d4014610356578063ad69ab9514610381578063b88a802f14610411578063c7c4a61514610428578063c96485b714610471578063c9e525df1461049c578063dfbf53ae146104c7575b600080fd5b34801561010257600080fd5b5061016b600480360381019080803590602001908201803590602001908080601f016020809104026020016040519081016040528093929190818152602001838380828437820191505050505050919291929080356000191690602001909291905050506104f2565b005b34801561017957600080fd5b50610182610a59565b6040518082815260200191505060405180910390f35b3480156101a457600080fd5b506101ad610a5f565b6040518082815260200191505060405180910390f35b6101e56004803603810190808035600019169060200190929190505050610a65565b005b3480156101f357600080fd5b506101fc610cbe565b604051808215151515815260200191505060405180910390f35b34801561022257600080fd5b5061022b610cd1565b6040518082815260200191505060405180910390f35b34801561024d57600080fd5b50610256610cd7565b604051808215151515815260200191505060405180910390f35b34801561027c57600080fd5b50610285610cea565b6040518082815260200191505060405180910390f35b3480156102a757600080fd5b506102b0610cf0565b6040518082815260200191505060405180910390f35b3480156102d257600080fd5b506102db610cf6565b6040518080602001828103825283818151815260200191508051906020019080838360005b8381101561031b578082015181840152602081019050610300565b50505050905090810190601f1680156103485780820380516001836020036101000a031916815260200191505b509250505060405180910390f35b34801561036257600080fd5b5061036b610d94565b6040518082815260200191505060405180910390f35b34801561038d57600080fd5b50610396610d9a565b6040518080602001828103825283818151815260200191508051906020019080838360005b838110156103d65780820151818401526020810190506103bb565b50505050905090810190601f1680156104035780820380516001836020036101000a031916815260200191505b509250505060405180910390f35b34801561041d57600080fd5b50610426610e38565b005b34801561043457600080fd5b5061045360048036038101908080359060200190929190505050610fc0565b60405180826000191660001916815260200191505060405180910390f35b34801561047d57600080fd5b50610486610fe3565b6040518082815260200191505060405180910390f35b3480156104a857600080fd5b506104b1610fe9565b6040518082815260200191505060405180910390f35b3480156104d357600080fd5b506104dc610fef565b6040518082815260200191505060405180910390f35b60608060075442111561050c57610507610ff5565b610a53565b6002546009541115151561051f57600080fd5b600c600084600019166000191681526020019081526020016000208054600181600116156101000203166002900480601f0160208091040260200160405190810160405280929190818152602001828054600181600116156101000203166002900480156105ce5780601f106105a3576101008083540402835291602001916105ce565b820191906000526020600020905b8154815290600101906020018083116105b157829003601f168201915b5050505050915060008251141515156105e657600080fd5b7f430000000000000000000000000000000000000000000000000000000000000082600081518110151561061657fe5b9060200101517f010000000000000000000000000000000000000000000000000000000000000090047f0100000000000000000000000000000000000000000000000000000000000000027effffffffffffffffffffffffffffffffffffffffffffffffffffffffffffff191614151561068f57600080fd5b836040518082805190602001908083835b6020831015156106c557805182526020820191506020810190506020830392506106a0565b6001836020036101000a038019825116818451168082178552505050505050905001915050604051809103902060001916836000191614151561070757600080fd5b8390507f310000000000000000000000000000000000000000000000000000000000000081600081518110151561073a57fe5b9060200101517f010000000000000000000000000000000000000000000000000000000000000090047f0100000000000000000000000000000000000000000000000000000000000000027effffffffffffffffffffffffffffffffffffffffffffffffffffffffffffff1916148061084d57507f32000000000000000000000000000000000000000000000000000000000000008160008151811015156107de57fe5b9060200101517f010000000000000000000000000000000000000000000000000000000000000090047f0100000000000000000000000000000000000000000000000000000000000000027effffffffffffffffffffffffffffffffffffffffffffffffffffffffffffff1916145b151561085857600080fd5b3373ffffffffffffffffffffffffffffffffffffffff166108fc6003549081150290604051600060405180830381858888f193505050501580156108a0573d6000803e3d6000fd5b507f31000000000000000000000000000000000000000000000000000000000000008160008151811015156108d157fe5b9060200101517f010000000000000000000000000000000000000000000000000000000000000090047f0100000000000000000000000000000000000000000000000000000000000000027effffffffffffffffffffffffffffffffffffffffffffffffffffffffffffff1916141561095b5760056000815480929190600101919050555061096e565b6006600081548092919060010191905055505b6009600081548092919060010191905055506040805190810160405280600881526020017f52657665616c6564000000000000000000000000000000000000000000000000815250600c6000856000191660001916815260200190815260200160002090805190602001906109e4929190611364565b506001600d60003373ffffffffffffffffffffffffffffffffffffffff1673ffffffffffffffffffffffffffffffffffffffff16815260200190815260200160002060006101000a81548160ff0219169083151502179055506002546009541415610a5257610a51611045565b5b5b50505050565b60055481565b60065481565b6060600754421115610a7e57610a79610ff5565b610cba565b600f60019054906101000a900460ff161515610a9957600080fd5b6003543410151515610aaa57600080fd5b600c600083600019166000191681526020019081526020016000208054600181600116156101000203166002900480601f016020809104026020016040519081016040528092919081815260200182805460018160011615610100020316600290048015610b595780601f10610b2e57610100808354040283529160200191610b59565b820191906000526020600020905b815481529060010190602001808311610b3c57829003601f168201915b5050505050905060008151141515610b7057600080fd5b600b8290806001815401808255809150509060018203906000526020600020016000909192909190915090600019169055506040805190810160405280600981526020017f436f6d6d69747465640000000000000000000000000000000000000000000000815250600c600084600019166000191681526020019081526020016000209080519060200190610c06929190611364565b506008600081548092919060010191905055506002546008541415610c41576000600f60016101000a81548160ff0219169083151502179055505b7f71686bf604516ec26c66e29d99806ec561babddb717581e83cdd0d0cecdda08882604051808060200183600019166000191681526020018281038252600e8152602001807f566f746520636f6d6d69747465640000000000000000000000000000000000008152506020019250505060405180910390a15b5050565b600f60019054906101000a900460ff1681565b60075481565b600f60009054906101000a900460ff1681565b60035481565b600a5481565b60008054600181600116156101000203166002900480601f016020809104026020016040519081016040528092919081815260200182805460018160011615610100020316600290048015610d8c5780601f10610d6157610100808354040283529160200191610d8c565b820191906000526020600020905b815481529060010190602001808311610d6f57829003601f168201915b505050505081565b60095481565b60018054600181600116156101000203166002900480601f016020809104026020016040519081016040528092919081815260200182805460018160011615610100020316600290048015610e305780601f10610e0557610100808354040283529160200191610e30565b820191906000526020600020905b815481529060010190602001808311610e1357829003601f168201915b505050505081565b600d60003373ffffffffffffffffffffffffffffffffffffffff1673ffffffffffffffffffffffffffffffffffffffff16815260200190815260200160002060009054906101000a900460ff161515610e9057600080fd5b600e60003373ffffffffffffffffffffffffffffffffffffffff1673ffffffffffffffffffffffffffffffffffffffff16815260200190815260200160002060009054906101000a900460ff16151515610ee957600080fd5b60075442111515610ef957600080fd5b600f60009054906101000a900460ff161515610f1c57610f17610ff5565b610fbe565b3373ffffffffffffffffffffffffffffffffffffffff166108fc600a549081150290604051600060405180830381858888f19350505050158015610f64573d6000803e3d6000fd5b506001600e60003373ffffffffffffffffffffffffffffffffffffffff1673ffffffffffffffffffffffffffffffffffffffff16815260200190815260200160002060006101000a81548160ff0219169083151502179055505b565b600b81815481101515610fcf57fe5b906000526020600020016000915090505481565b60085481565b60025481565b60045481565b6009543073ffffffffffffffffffffffffffffffffffffffff163181151561101957fe5b04600a819055506000600f60016101000a81548160ff021916908315150217905550611043611045565b565b600060045414151561105657600080fd5b600654600554111561117d5760016004819055507fb21497b523a1df7b5e12a10f1370dbe1fdcdd0bb44857a85a97cb8bb7b2b932660006040518080602001806020018381038352600a8152602001807f57696e6e6572206973200000000000000000000000000000000000000000000081525060200183810382528481815460018160011615610100020316600290048152602001915080546001816001161561010002031660029004801561114e5780601f106111235761010080835404028352916020019161114e565b820191906000526020600020905b81548152906001019060200180831161113157829003601f168201915b5050935050505060405180910390a16000600f60016101000a81548160ff021916908315150217905550611362565b60055460065411156112a45760026004819055507fb21497b523a1df7b5e12a10f1370dbe1fdcdd0bb44857a85a97cb8bb7b2b932660016040518080602001806020018381038352600a8152602001807f57696e6e657220697320000000000000000000000000000000000000000000008152506020018381038252848181546001816001161561010002031660029004815260200191508054600181600116156101000203166002900480156112755780601f1061124a57610100808354040283529160200191611275565b820191906000526020600020905b81548152906001019060200180831161125857829003601f168201915b5050935050505060405180910390a16000600f60016101000a81548160ff021916908315150217905550611361565b7fb21497b523a1df7b5e12a10f1370dbe1fdcdd0bb44857a85a97cb8bb7b2b93266040518080602001806020018381038352600a8152602001807f57696e6e65722069732000000000000000000000000000000000000000000000815250602001838103825260048152602001807f64726177000000000000000000000000000000000000000000000000000000008152506020019250505060405180910390a16000600f60016101000a81548160ff0219169083151502179055505b5b565b828054600181600116156101000203166002900490600052602060002090601f016020900481019282601f106113a557805160ff19168380011785556113d3565b828001600101855582156113d3579182015b828111156113d25782518255916020019190600101906113b7565b5b5090506113e091906113e4565b5090565b61140691905b808211156114025760008160009055506001016113ea565b5090565b905600a165627a7a72305820518ded3d8fa8209d40b83c7bc9e3c213deb4cf0175fed396cb6d0e194d94e2ca0029",
  "source": "pragma solidity ^0.4.24;\n\ncontract commitReveal {\n    string public option1;\n    string public option2;\n\n    uint public N;\n    uint public s;\n    uint public winner = 0;\n    uint public votes1;\n    uint public votes2;\n    uint public endingTime;\n    uint public numVotesCast = 0;\n    uint public numReveals = 0;\n    uint public revealersReward = 0;\n\n    bytes32[] public commits;\n    mapping(bytes32 => string) status; //checks whether status is commit or revealed\n    mapping(address => bool) revealers;\n    mapping(address => bool) rewardees;\n    bool public rewardTaken = false;\n    bool public isOpen;\n    event newCommit(string s, bytes32 commit);\n    event wins(string s1, string s2);\n\n    constructor (uint n, uint stake, uint allowedPhaseSeconds, \n    string _option1, string _option2) {\n        require(stake > 0);\n        require(n > 1);\n        endingTime = now + allowedPhaseSeconds;\n        N = n;\n        s = stake;\n        option1 = _option1;\n        option2 = _option2;\n        isOpen = true;\n    }\n\n    function commitVote(bytes32 _commit) public payable {\n        if (now > endingTime){\n            revealLimitExceeded();\n        } else {\n            require(isOpen);\n            require(msg.value >= s);\n            bytes memory checkNotDuplicate = bytes(status[_commit]);\n            require(checkNotDuplicate.length == 0);\n            commits.push(_commit);\n            status[_commit] = \"Committed\";\n            numVotesCast++;\n            if (numVotesCast == N){\n                isOpen = false;\n            }\n            emit newCommit('Vote committed', _commit);\n        }\n    }\n\n    function revealVote(string _vote, bytes32 _commit) public{\n        if (now > endingTime) {\n            revealLimitExceeded();\n        } else {\n            require(numReveals <= N);\n\n            bytes memory stat = bytes(status[_commit]);\n            require(stat.length != 0);\n            require(stat[0] == \"C\");\n            require(_commit == keccak256(_vote));\n            bytes memory bytesVote = bytes(_vote);\n            require(bytesVote[0] == \"1\" || bytesVote[0] == \"2\");\n            msg.sender.transfer(s);\n            if (bytesVote[0] == \"1\" ){\n                votes1++;\n            } else {\n                votes2++;\n            }\n            numReveals++;\n            status[_commit] = \"Revealed\";\n            revealers[msg.sender] = true;\n            if (numReveals == N){\n                revealWinner();\n            }\n        }\n    }\n\n    function revealWinner() internal {\n        require(winner == 0);\n        if (votes1 > votes2){\n            winner  = 1;\n            emit wins(\"Winner is \", option1);\n            isOpen = false;\n        } else if (votes2 > votes1) {\n            winner  = 2;\n            emit wins(\"Winner is \", option2);\n            isOpen = false;\n        } else {\n            emit wins(\"Winner is \", \"draw\");\n            isOpen = false;\n        }\n    }\n\n    function revealLimitExceeded() internal {\n        revealersReward = this.balance / numReveals;\n        isOpen = false;\n        revealWinner();\n    }\n\n    function claimReward() public {\n        require(revealers[msg.sender]);\n        require(!rewardees[msg.sender]);\n        require(now > endingTime);\n        if (!rewardTaken){\n            revealLimitExceeded();\n        } else {\n            msg.sender.transfer(revealersReward);\n            rewardees[msg.sender] = true;\n        }\n    }\n\n\n\n}",
  "sourcePath": "/Users/nihar/commit-reveal/contracts/CommitReveal.sol",
  "compiler": {
    "name": "solc",
    "version": "0.4.24+commit.e67f0147.Emscripten.clang"
  },
  "schemaVersion": "2.0.1",
  "updatedAt": "2019-01-09T01:26:03.922Z"
}